:100000000C944A000C9469000C9469000C946900EB
:100010000C9469000C9469000C9469000C946900BC
:100020000C9469000C9469000C9469000C946900AC
:100030000C9469000C9469000C9469000C9469009C
:100040000C9469000C9469000C9469000C9469008C
:100050000C9469000C9469000C9469000C9469007C
:100060000C9469000C9469000C9469000C9469006C
:100070000C9469000C9469000C9419010C94E20032
:100080000C9469000C9469000C9469001B5B481B7C
:100090005B324A0011241FBECFEFD0E1DEBFCDBFDF
:1000A00011E0A0E0B1E0E6E4F9E000E00BBF02C03F
:1000B00007900D92AA31B107D9F711E0AAE1B1E09A
:1000C00001C01D92A638B107E1F70E946B000C94A5
:1000D000A1040C9400000E947E0084B790E09F93DE
:1000E0008F9380E091E09F938F930E94A1010F90E6
:1000F0000F900F900F9080E090E0089510927F0194
:1001000010923D0181E080933B0110923C011092DE
:100110001A0180933E01EDE9F0E0808186608083E2
:10012000EAE9F0E0108210929B0087E0809399004A
:1001300010929800808188618083808180688083AC
:100140008BE091E090938301809382010895282FA2
:1001500080919A008F7D80939A0080919B0085FF0B
:1001600007C080913B01882319F020939C0022C096
:1001700090917F0180913D01981721F480913B017E
:100180008823C1F0E0917F01F0E0E15CFE4F208325
:1001900080917F018F5F80937F0110923B0180915E
:1001A0007F01803410F010927F0180919A0080626C
:1001B00080939A0080919A00806280939A0080E0F8
:1001C00090E008951F920F920FB60F920BB60F9208
:1001D00011248F939F93EF93FF93E0913D01F0E003
:1001E000E15CFE4F808180939C0080913D018F5F98
:1001F00080933D0180913D01803410F010923D01CB
:1002000090917F0180913D01981741F480919A006F
:100210008F7D80939A0081E080933B01FF91EF9165
:100220009F918F910F900BBE0F900FBE0F901F905C
:1002300018951F920F920FB60F920BB60F921124C2
:100240008F939F93EF93FF9390913C0180911A01BC
:10025000981721F480913E018823A9F0E0913C0198
:1002600080919C00F0E0E55EFE4F808380913C0130
:100270008F5F80933C0110923E0180913C0180325F
:1002800010F010923C01FF91EF919F918F910F9090
:100290000BBE0F900FBE0F901F901895DC01809140
:1002A0009A008F7780939A0080913E01882311F005
:1002B00090E01CC0E0911A01F0E0E55EFE4F808105
:1002C0008C9380911A018F5F80931A0180911A019B
:1002D000803210F010921A0190913C0180911A0125
:1002E000981719F481E080933E0191E080919A0083
:1002F000806880939A00892F08950F931F93DF934E
:10030000CF930F92CDB7DEB78E010F5F1F4FC8019D
:100310000E944E018823D9F3898190E00F90CF91FC
:10032000DF911F910F910895982F80919B0085FF79
:10033000FCCF90939C0008958CE890E00E94B60159
:100340000895A0E0B0E0E7EAF1E00C947A04FE0141
:10035000359661917191AF018091820190918301F5
:100360000E94EB012096E2E00C9496040F931F93F9
:10037000CF93DF93EC01E0918201F09183018381BF
:1003800081FF21C000E010E00EC0E0918201F091F9
:10039000830120853185BF01F9010995892B11F071
:1003A0000FEF1FEF2196FE018491882371F7E091F2
:1003B0008201F091830120853185BF018AE0F90136
:1003C0000995892B11F00FEF1FEFC801DF91CF9135
:1003D0001F910F910895ABE0B0E0E1EFF1E00C94D4
:1003E0006A043C012B015A01FC01178216828381A9
:1003F00081FD03C06FEF7FEFC8C19AE0892E1E0117
:100400000894211C311CF3012381F20123FD859105
:1004100023FF81912F01882309F4B4C1853239F477
:1004200023FD859123FF81912F01853229F4B301AA
:1004300090E00E94E003E7CF982FDD24CC2499249C
:10044000FFE1FD15D0F09B3269F09C3228F4903228
:1004500059F0933291F40EC09D3249F0903369F413
:1004600041E024C052E0D52A84E0D82A28C098E090
:10047000D92A25C0E0E1DE2A22C0D7FC29C0892F75
:1004800080538A3070F4D6FE05C0989C902C1124BD
:10049000980E15C0C89CC02C1124C80EF0E2DF2AAB
:1004A0000EC09E3229F4D6FC6DC140E4D42A07C0A8
:1004B0009C3619F450E8D52A02C0983649F4F20166
:1004C00023FD959123FF91912F01992309F0B8CF36
:1004D000892F8554833018F08052833038F444E0FB
:1004E00050E0A40EB51E5FE359830FC0933631F080
:1004F000933779F0933509F056C020C0F50180811B
:10050000898342E050E0A40EB51E710101E010E0C5
:1005100012C0F501E080F180D6FC03C06FEF7FEFE1
:1005200002C0692D70E042E050E0A40EB51EC70184
:100530000E94D5038C015FE7D52214C0F501E0804D
:10054000F180D6FC03C06FEF7FEF02C0692D70E031
:1005500042E050E0A40EB51EC7010E94CA038C0100
:1005600050E8D52AD3FE07C01AC0B30180E290E05C
:100570000E94E003CA948C2D90E008171907A8F395
:100580000EC0F701D7FC8591D7FE81917F01B301A1
:1005900090E00E94E003C110CA9401501040011580
:1005A000110579F7ECC0943611F0993671F5D7FE44
:1005B00008C0F501E080F1800281138144E050E041
:1005C0000AC0F501808191817C010027F7FC00952C
:1005D000102F42E050E0A40EB51E5FE6D52217FFB3
:1005E0000AC010950095F094E094E11CF11C011DE7
:1005F000111D80E8D82A2AE030E0A101C801B70126
:100600000E940C04F82EF21840C0953729F41D2DD5
:100610001F7E2AE030E01DC01D2D197F9F3661F03E
:10062000903720F4983509F0ADC00FC0903739F0FD
:10063000983709F0A7C004C028E030E00AC0106174
:1006400014FD146020E130E004C014FD166020E1C8
:1006500032E017FF08C0F5016081718182819381CA
:1006600044E050E008C0F50180819181BC0180E048
:1006700090E042E050E0A40EB51EA1010E940C04DF
:10068000F82EF2188FE7D82ED122D6FE0BC05EEFDF
:10069000D522F91438F4D4FE07C0D2FC05C08FEE81
:1006A000D82202C01F2D01C0192DD4FE0DC0FE019D
:1006B000EF0DF11D8081803319F499EED92208C025
:1006C0001F5FD2FE05C003C08D2D867809F01F5F25
:1006D0000D2DD3FC14C0D0FE0FC01C1510F09F2CA4
:1006E0000BC09F2C9C0C911A1C2D06C0B30180E2FC
:1006F00090E00E94E0031F5F1C15C0F304C01C15AE
:1007000010F4C11A01C0CC2404FF10C0B30180E36F
:1007100090E00E94E00302FF1EC001FD03C088E7D5
:1007200090E002C088E590E0B3010CC0802F86788D
:1007300091F001FF02C08BE201C080E2D7FC8DE2A4
:10074000B30190E00E94E00306C0B30180E390E0B3
:100750000E94E0039A94F914C0F3FA94F101EF0DAA
:10076000F11DB301808190E00E94E003FF20A9F712
:1007700006C0B30180E290E00E94E003CA94CC205E
:10078000C1F741CEF30166817781CB012B96E2E17F
:100790000C948604FC010590615070400110D8F75C
:1007A000809590958E0F9F1F0895FC0161507040B9
:1007B00001900110D8F7809590958E0F9F1F089596
:1007C0000F931F93CF93DF938C01EB018B8181FFFC
:1007D0001BC082FF0DC02E813F818C819D81281717
:1007E000390764F4E881F9810193F983E88306C04D
:1007F000E885F985802F0995892B31F48E819F81B9
:1008000001969F838E8302C00FEF1FEFC801DF9117
:10081000CF911F910F910895FA01AA27283051F125
:10082000203181F1E8946F936E7F6E5F7F4F8F4F21
:100830009F4FAF4FB1E03ED0B4E03CD0670F781F80
:10084000891F9A1FA11D680F791F8A1F911DA11D65
:100850006A0F711D811D911DA11D20D009F468949E
:100860003F912AE0269F11243019305D3193DEF646
:10087000CF010895462F4770405D4193B3E00FD0FC
:10088000C9F7F6CF462F4F70405D4A3318F0495DE7
:1008900031FD4052419302D0A9F7EACFB4E0A695CA
:1008A0009795879577956795BA95C9F700976105EC
:1008B000710508959B01AC010A2E06945795479542
:1008C00037952795BA95C9F7620F731F841F951F37
:1008D000A01D08952F923F924F925F926F927F9248
:1008E0008F929F92AF92BF92CF92DF92EF92FF9240
:1008F0000F931F93CF93DF93CDB7DEB7CA1BDB0BEC
:100900000FB6F894DEBF0FBECDBF09942A88398890
:1009100048885F846E847D848C849B84AA84B98497
:10092000C884DF80EE80FD800C811B81AA81B981A3
:10093000CE0FD11D0FB6F894DEBF0FBECDBFED01B7
:060940000895F894FFCFBA
:1009460052657365743A2025780A0000000003009A
:0A095600000000A7007D0100000072
:00000001FF
