:100000000C945F000C947E000C947E000C947E0097
:100010000C947E000C947E000C947E000C947E0068
:100020000C947E000C947E000C947E000C947E0058
:100030000C9484020C948E020C9498020C947E0012
:100040000C9413020C947E000C947E000C947E00A1
:100050000C947E000C947E000C947E000C947E0028
:100060000C947E000C947E000C9430020C943A02A6
:100070000C947E000C9426020C942F010C94E40046
:100080000C9425010C947E000C947E001B5B481B95
:100090005B324A00253034780A003C333E4D616AB9
:1000A0006F72206578706C6F73696F6E3A20257877
:1000B0000A0052657365743A2025780A00001124FD
:1000C0001FBECFEFD0E1DEBFCDBF11E0A0E0B1E0B9
:1000D000E0E8FBE000E00BBF02C007900D92AE30FD
:1000E000B107D9F711E0AEE0B1E001C01D92AA3727
:1000F000B107E1F70E94B7010C94BE050C94000013
:1001000010924E0110924F0181E0809350011092A5
:1001100071011092720180937301EDE9F0E080812A
:1001200086608083EAE9F0E0108210929B0087E00D
:1001300080939900109298008081886180838081EB
:100140008068808380E091E09093770180937601CE
:100150000895282F80919A008F7D80939A00809136
:100160009B0085FF0CC080915001882341F02093B3
:100170009C0080919A00806280939A001DC09091AB
:100180004E0180914F01981721F4809150018823EE
:1001900099F0E0914E01F0E0E25FFE4F2083809104
:1001A0004E018F5F80934E011092500180914E015D
:1001B000803410F010924E0180919A0080628093FA
:1001C0009A0080E090E008951F920F920FB60F9270
:1001D0000BB60F9211248F939F93EF93FF9380910F
:1001E0005001882311F5E0914F01F0E0E25FFE4FEE
:1001F000808180939C0080914F018F5F80934F019D
:1002000080914F01803410F010924F0190914E0177
:1002100080914F01981771F480919A008F7D80939F
:100220009A0081E08093500105C080919A008F7DF3
:1002300080939A00FF91EF919F918F910F900BBE49
:100240000F900FBE0F901F9018951F920F920FB630
:100250000F9211240F900FBE0F901F9018951F92B0
:100260000F920FB60F920BB60F9211248F939F939C
:10027000EF93FF939091710180917201981721F48F
:10028000809173018823A9F0E091710180919C0015
:10029000F0E0EF5AFE4F8083809171018F5F809371
:1002A00071011092730180917101803210F01092EF
:1002B0007101FF91EF919F918F910F900BBE0F9065
:1002C0000FBE0F901F901895DC0180919A008F77D8
:1002D00080939A0080917301882311F090E01CC0F4
:1002E000E0917201F0E0EF5AFE4F80818C93809193
:1002F00072018F5F8093720180917201803210F0E1
:10030000109272019091710180917201981719F405
:1003100081E08093730191E080919A0080688093DE
:100320009A00892F08950F931F93DF93CF930F9215
:10033000CDB7DEB78E010F5F1F4FC8010E94640169
:100340008823D9F3898190E00F90CF91DF911F919D
:100350000F910895982F80919B0085FFFCCF90937B
:100360009C0008958CE890E00E94E30208950F93AA
:100370001F93CF93DF930E940B020E9480000E9484
:100380004402789424B700D000D0EDB7FEB7319680
:1003900082EB90E0ADB7BEB712969C938E93119707
:1003A000228313820E94C00229B300D0EDB7FEB7AA
:1003B00031968091760190917701ADB7BEB71296D4
:1003C0009C938E9311978AE990E093838283248390
:1003D00015820E94A202C0E0D0E0EDB7FEB73696CB
:1003E0000FB6F894FEBF0FBEEDBF04E910E02196F2
:1003F00000D000D0ADB7BEB712961C930E931197E4
:100400001496DC93CE9313970E94C0020F900F9026
:100410000F900F90ECCF84E083BF81E086BF87BF51
:1004200081E090E008951F920F920FB60F92112471
:100430000F900FBE0F901F9018951FBC81E08EBDCE
:1004400084E086BF87BF81E090E008951F920F92FD
:100450000FB60F9211240F900FBE0F901F9018959A
:100460001F920F920FB60F9211240F900FBE0F9094
:100470001F9018951F920F920FB60F9211240F9094
:100480000FBE0F901F90189582B18C6182B91092A7
:10049000870080EF8093860010928500809384000F
:1004A0001092830080938200109281008FEF8093DE
:1004B000800080EC80938B0089E180938A00EDE7D7
:1004C000F0E080818061808381E090E0089587B3CF
:1004D000806E87BB1092870080EF80938600109219
:1004E000850080938400109283008093820083E0D3
:1004F00087BD8FEF86BD1FBC81E18EBD87B7886148
:1005000087BF81E090E008951F920F920FB60F927F
:1005100011240F900FBE0F901F9018951F920F92ED
:100520000FB60F9211240F900FBE0F901F901895C9
:100530001F920F920FB60F9211240F900FBE0F90C3
:100540001F9018950F931F93DF93CF93CDB7DEB70E
:100550000F8118859E01255F3F4FF80183818860D8
:100560008383C80169857A85A9010E941803F8016F
:100570002381277F2383CF91DF911F910F910895CE
:10058000DF93CF93CDB7DEB7FE01359661917191C0
:10059000A0917601B091770113968C9113978860A2
:1005A00013968C938091760190917701AF010E9410
:1005B0001803E0917601F09177012381277F23834F
:1005C000CF91DF9108950F931F93CF93DF93EC01A9
:1005D000E0917601F0917701838181FF21C000E0F5
:1005E00010E00EC0E0917601F09177012085318511
:1005F000BF01F9010995892B11F00FEF1FEF21962B
:10060000FE018491882371F7E0917601F0917701E2
:10061000208531858AE0BF01F9010995892B11F008
:100620000FEF1FEFC801DF91CF911F910F91089538
:100630002F923F924F925F926F927F928F929F92F2
:10064000AF92BF92CF92DF92EF92FF920F931F93E0
:10065000DF93CF93CDB7DEB72B970FB6F894DEBFFD
:100660000FBECDBF3C012B015A01FC01178216823F
:10067000838181FD03C06FEF7FEFC6C19AE0892EB1
:100680001E010894211C311CF3012381F20123FD7A
:10069000859123FF81912F01882309F4B2C185320E
:1006A00039F423FD859123FF81912F01853229F4AF
:1006B00090E0B3010E943405E7CF982FFF24EE2489
:1006C0009924FFE1FF15D0F09B3269F09C3228F4A9
:1006D000903259F0933291F40EC09D3249F090332C
:1006E00069F441E024C052E0F52A84E0F82A28C0E9
:1006F00098E0F92A25C0E0E1FE2A22C0F7FC29C0D3
:10070000892F80538A3070F4F6FE05C0989C902C97
:100710001124980E15C0E89CE02C1124E80EF0E29C
:10072000FF2A0EC09E3229F4F6FC6BC140E4F42A85
:1007300007C09C3619F450E8F52A02C0983649F4EF
:10074000F20123FD959123FF91912F01992309F047
:10075000B8CF892F8554833018F08052833038F415
:1007600044E050E0A40EB51E5FE359830FC09336FA
:1007700031F0933779F0933509F056C020C0F50178
:100780008081898342E050E0A40EB51E610101E042
:1007900010E012C0F501C080D180F6FC03C06FEFFD
:1007A0007FEF02C0692D70E042E050E0A40EB51E5C
:1007B000C6010E9429058C015FE7F52214C0F501EE
:1007C000C080D180F6FC03C06FEF7FEF02C0692DBF
:1007D00070E042E050E0A40EB51EC6010E941E0566
:1007E0008C0150E8F52AF3FE07C01AC080E290E0C1
:1007F000B3010E943405EA948E2D90E00817190782
:10080000A8F30EC0F601F7FC8591F7FE81916F0108
:1008100090E0B3010E943405E110EA9401501040C9
:100820000115110579F7EAC0943611F0993669F58A
:10083000F7FE08C0F501208131814281538184E0B7
:1008400090E00AC0F501808191819C01442737FD29
:100850004095542F82E090E0A80EB91E9FE6F92241
:1008600057FF09C050954095309521953F4F4F4F08
:100870005F4FE0E8FE2ACA01B901A1012AE030E099
:100880000E946005D82ED21840C0953729F41F2D3C
:100890001F7E2AE030E01DC01F2D197F9F3661F0BA
:1008A000903720F4983509F0ACC00FC0903739F07C
:1008B000983709F0A6C004C028E030E00AC01061F3
:1008C00014FD146020E130E004C014FD166020E146
:1008D00032E017FF08C0F501608171818281938148
:1008E00044E050E008C0F50180819181BC0180E0C6
:1008F00090E042E050E0A40EB51EA1010E94600508
:10090000D82ED2188FE7F82EF122F6FE0BC05EEF3C
:10091000F522D91438F4F4FE07C0F2FC05C08FEEBE
:10092000F82202C01D2D01C0192DF4FE0DC0FE01DC
:10093000ED0DF11D8081803319F499EEF92208C084
:100940001F5FF2FE05C003C08F2D867809F01F5F80
:100950000F2DF3FC14C0F0FE0FC01E1510F09D2CDF
:100960000BC09D2C9E0C911A1E2D06C080E290E0BB
:10097000B3010E9434051F5F1E15C0F304C01E158D
:1009800010F4E11A01C0EE2404FF0FC080E390E0F0
:10099000B3010E94340502FF1DC001FD03C088E7BA
:1009A00090E00EC088E590E00BC0802F867891F033
:1009B00001FF02C08BE201C080E2F7FC8DE290E013
:1009C000B3010E94340506C080E390E0B3010E94A9
:1009D00034059A94D914C0F3DA94F101ED0DF11DA8
:1009E000808190E0B3010E943405DD20A9F706C0A4
:1009F00080E290E0B3010E943405EA94EE20C1F752
:100A000043CEF30166817781CB012B960FB6F89424
:100A1000DEBF0FBECDBFCF91DF911F910F91FF9031
:100A2000EF90DF90CF90BF90AF909F908F907F908E
:100A30006F905F904F903F902F900895FC0105902C
:100A4000615070400110D8F7809590958E0F9F1FD0
:100A50000895FC016150704001900110D8F7809515
:100A600090958E0F9F1F08950F931F93CF93DF9341
:100A70008C01EB018B8181FF1BC082FF0DC02E8199
:100A80003F818C819D812817390764F4E881F981C1
:100A90000193F983E88306C0E885F985802F0995DD
:100AA000892B31F48E819F8101969F838E8302C0B2
:100AB0000FEF1FEFC801DF91CF911F910F910895A4
:100AC000FA01AA27283051F1203181F1E8946F937F
:100AD0006E7F6E5F7F4F8F4F9F4FAF4FB1E03ED025
:100AE000B4E03CD0670F781F891F9A1FA11D680FC3
:100AF000791F8A1F911DA11D6A0F711D811D911DF6
:100B0000A11D20D009F468943F912AE0269F11246A
:100B10003019305D3193DEF6CF010895462F4770CE
:100B2000405D4193B3E00FD0C9F7F6CF462F4F7029
:100B3000405D4A3318F0495D31FD4052419302D087
:100B4000A9F7EACFB4E0A69597958795779567952D
:100B5000BA95C9F700976105710508959B01AC012D
:100B60000A2E06945795479537952795BA95C9F754
:100B7000620F731F841F951FA01D0895F894FFCF67
:0E0B80000000000300000000A9009301000027
:00000001FF
